{
  "transactions": [
    {
      "hash": "0x3358bdef243ec68fa7aa7bb505b9aa33272069bdec4a41fbcbc787e0eb5e54e7",
      "transactionType": "CREATE",
      "contractName": "MNEEToken",
      "contractAddress": "0x191786980c31b2c2a731cf795b0f72fa8fc62741",
      "function": null,
      "arguments": [
        "1000000000000000000000000"
      ],
      "transaction": {
        "from": "0x0f05831e0544c390c547109f5d9d72267727bd9a",
        "gas": "0xc6dfa",
        "value": "0x0",
        "input": "0x6080604052346103da57610c006020813803918261001c816103de565b9384928339810103126103da575161003460406103de565b90600f82526e26a722a29029ba30b13632b1b7b4b760891b602083015261005b60406103de565b60048152634d4e454560e01b602082015282519091906001600160401b0381116102eb57600354600181811c911680156103d0575b60208210146102cd57601f811161036d575b506020601f821160011461030a57819293945f926102ff575b50508160011b915f199060031b1c1916176003555b81516001600160401b0381116102eb57600454600181811c911680156102e1575b60208210146102cd57601f811161026a575b50602092601f821160011461020957928192935f926101fe575b50508160011b915f199060031b1c1916176004555b33156101eb5760058054336001600160a01b0319821681179092556001600160a01b03167f8be0079c531659141344cd1fd0a4f28419497f9722a3daafe3b4186f6b6457e05f80a36002548181018091116101d757600255335f525f60205260405f208181540190556040519081525f7fddf252ad1be2c89b69c2b068fc378daa952ba7f163c4a11628f55a4df523b3ef60203393a36040516107fc90816104048239f35b634e487b7160e01b5f52601160045260245ffd5b631e4fbdf760e01b5f525f60045260245ffd5b015190505f8061011d565b601f1982169360045f52805f20915f5b868110610252575083600195961061023a575b505050811b01600455610132565b01515f1960f88460031b161c191690555f808061022c565b91926020600181928685015181550194019201610219565b60045f527f8a35acfbc15ff81a39ae7d344fd709f28e8600b4aa8c65c6b64bfe7fe36bd19b601f830160051c810191602084106102c3575b601f0160051c01905b8181106102b85750610103565b5f81556001016102ab565b90915081906102a2565b634e487b7160e01b5f52602260045260245ffd5b90607f16906100f1565b634e487b7160e01b5f52604160045260245ffd5b015190505f806100bb565b601f1982169060035f52805f20915f5b8181106103555750958360019596971061033d575b505050811b016003556100d0565b01515f1960f88460031b161c191690555f808061032f565b9192602060018192868b01518155019401920161031a565b60035f527fc2575a0e9e593c00f959f8c92f12db2869c3395a3b0502d05e2516446f71f85b601f830160051c810191602084106103c6575b601f0160051c01905b8181106103bb57506100a2565b5f81556001016103ae565b90915081906103a5565b90607f1690610090565b5f80fd5b6040519190601f01601f191682016001600160401b038111838210176102eb5760405256fe6080806040526004361015610012575f80fd5b5f3560e01c90816306fdde03146105d057508063095ea7b31461054e57806318160ddd1461053157806323b872dd14610452578063313ce5671461043757806340c10f191461038b57806370a0823114610354578063715018a6146102f95780638da5cb5b146102d157806395d89b41146101b6578063a9059cbb14610185578063dd62ed3e146101355763f2fde38b146100ab575f80fd5b34610131576020366003190112610131576100c46106c9565b6100cc61079f565b6001600160a01b0316801561011e57600580546001600160a01b0319811683179091556001600160a01b03167f8be0079c531659141344cd1fd0a4f28419497f9722a3daafe3b4186f6b6457e05f80a3005b631e4fbdf760e01b5f525f60045260245ffd5b5f80fd5b346101315760403660031901126101315761014e6106c9565b6101566106df565b6001600160a01b039182165f908152600160209081526040808320949093168252928352819020549051908152f35b34610131576040366003190112610131576101ab6101a16106c9565b60243590336106f5565b602060405160018152f35b34610131575f366003190112610131576040515f6004548060011c906001811680156102c7575b6020831081146102b3578285529081156102975750600114610242575b50819003601f01601f191681019067ffffffffffffffff82118183101761022e5761022a8291826040528261069f565b0390f35b634e487b7160e01b5f52604160045260245ffd5b905060045f527f8a35acfbc15ff81a39ae7d344fd709f28e8600b4aa8c65c6b64bfe7fe36bd19b5f905b828210610281575060209150820101826101fa565b600181602092548385880101520191019061026c565b90506020925060ff191682840152151560051b820101826101fa565b634e487b7160e01b5f52602260045260245ffd5b91607f16916101dd565b34610131575f366003190112610131576005546040516001600160a01b039091168152602090f35b34610131575f3660031901126101315761031161079f565b600580546001600160a01b031981169091555f906001600160a01b03167f8be0079c531659141344cd1fd0a4f28419497f9722a3daafe3b4186f6b6457e08280a3005b34610131576020366003190112610131576001600160a01b036103756106c9565b165f525f602052602060405f2054604051908152f35b34610131576040366003190112610131576103a46106c9565b602435906103b061079f565b6001600160a01b031690811561042457600254908082018092116104105760207fddf252ad1be2c89b69c2b068fc378daa952ba7f163c4a11628f55a4df523b3ef915f9360025584845283825260408420818154019055604051908152a3005b634e487b7160e01b5f52601160045260245ffd5b63ec442f0560e01b5f525f60045260245ffd5b34610131575f36600319011261013157602060405160128152f35b346101315760603660031901126101315761046b6106c9565b6104736106df565b6001600160a01b0382165f818152600160209081526040808320338452909152902054909260443592915f1981106104b1575b506101ab93506106f5565b8381106105165784156105035733156104f0576101ab945f52600160205260405f2060018060a01b0333165f526020528360405f2091039055846104a6565b634a1406b160e11b5f525f60045260245ffd5b63e602df0560e01b5f525f60045260245ffd5b8390637dc7a0d960e11b5f523360045260245260445260645ffd5b34610131575f366003190112610131576020600254604051908152f35b34610131576040366003190112610131576105676106c9565b602435903315610503576001600160a01b03169081156104f057335f52600160205260405f20825f526020528060405f20556040519081527f8c5be1e5ebec7d5bd14f71427d1e84f3dd0314c0f7b2291e5b200ac8c7c3b92560203392a3602060405160018152f35b34610131575f366003190112610131575f6003548060011c90600181168015610695575b6020831081146102b35782855290811561029757506001146106405750819003601f01601f191681019067ffffffffffffffff82118183101761022e5761022a8291826040528261069f565b905060035f527fc2575a0e9e593c00f959f8c92f12db2869c3395a3b0502d05e2516446f71f85b5f905b82821061067f575060209150820101826101fa565b600181602092548385880101520191019061066a565b91607f16916105f4565b602060409281835280519182918282860152018484015e5f828201840152601f01601f1916010190565b600435906001600160a01b038216820361013157565b602435906001600160a01b038216820361013157565b6001600160a01b031690811561078c576001600160a01b031691821561042457815f525f60205260405f205481811061077357817fddf252ad1be2c89b69c2b068fc378daa952ba7f163c4a11628f55a4df523b3ef92602092855f525f84520360405f2055845f525f825260405f20818154019055604051908152a3565b8263391434e360e21b5f5260045260245260445260645ffd5b634b637e8f60e11b5f525f60045260245ffd5b6005546001600160a01b031633036107b357565b63118cdaa760e01b5f523360045260245ffdfea2646970667358221220c574f4887aedb5ce2e6be1f0671ef2e4bce99c6438dbbe54129bdc4f08a4043d64736f6c634300081d003300000000000000000000000000000000000000000000d3c21bcecceda1000000",
        "nonce": "0x19",
        "chainId": "0xaa36a7"
      },
      "additionalContracts": [],
      "isFixedGasLimit": false
    },
    {
      "hash": "0x39230fee9b6f079f7d4f469ee9d16fd9e1dafe41127c1194766d0a7f12a97986",
      "transactionType": "CREATE",
      "contractName": "MneeMart",
      "contractAddress": "0xac965de56a92faf07a34436350d0b6d64366cdc1",
      "function": null,
      "arguments": [
        "0x191786980C31b2C2a731Cf795B0F72fa8fC62741",
        "500"
      ],
      "transaction": {
        "from": "0x0f05831e0544c390c547109f5d9d72267727bd9a",
        "gas": "0x17fcd3",
        "value": "0x0",
        "input": "0x60803461013557601f61147538819003918201601f19168301916001600160401b038311848410176101395780849260409485528339810103126101355780516001600160a01b03811691908290036101355760200151903315610122575f8054336001600160a01b0319821681178355916001600160a01b03909116907f8be0079c531659141344cd1fd0a4f28419497f9722a3daafe3b4186f6b6457e09080a360017f9b779b17422d0df92223018b32b4d1fa46e071723d6817e2486d003becc55f00558015610113576107d082116100fa57600180546001600160a01b031916919091179055600255604051611327908161014e8239f35b50639842c93d60e01b5f526004526107d060245260445ffd5b630ccadb7f60e31b5f5260045ffd5b631e4fbdf760e01b5f525f60045260245ffd5b5f80fd5b634e487b7160e01b5f52604160045260245ffdfe6080806040526004361015610012575f80fd5b5f3560e01c9081631192313214610fed575080631198a63014610fa45780631f16653b14610f8757806330e6834f14610b7157806332f662f614610af157806338e76a03146108945780635b71474a1461086c57806362a5dbbc1461084f57806368d5ae10146107a35780636d47ab7214610751578063715018a6146106fa5780637acc0b20146106555780638da5cb5b1461062e5780639c3bddb2146105a8578063aa0b598814610514578063b9db15b41461043f578063c65dc2b31461039a578063cdd78cfc1461037d578063d0b7830b146102d8578063e6a93e1614610224578063f2fde38b1461019f5763fd77e5de1461010e575f80fd5b3461019b57602036600319011261019b576004355f81815260056020526040902060018101546001600160a01b0316330361018c57600501805460ff81161561017d5760ff191690557f241c84b17626110b8c42e26f8f7de483066e7f266953509e01046f09e6fdd6cc5f80a2005b630a7e462560e11b5f5260045ffd5b630851510b60e31b5f5260045ffd5b5f80fd5b3461019b57602036600319011261019b576101b8611031565b6101c061122a565b6001600160a01b03168015610211575f80546001600160a01b03198116831782556001600160a01b0316907f8be0079c531659141344cd1fd0a4f28419497f9722a3daafe3b4186f6b6457e09080a3005b631e4fbdf760e01b5f525f60045260245ffd5b3461019b57602036600319011261019b576001600160a01b03610245611031565b165f52600660205260405f20604051806020835491828152019081935f5260205f20905f5b8181106102c25750505081610280910382611063565b604051918291602083019060208452518091526040830191905f5b8181106102a9575050500390f35b825184528594506020938401939092019160010161029b565b825484526020909301926001928301920161026a565b3461019b575f36600319011261019b576102f061122a565b6102f86111f2565b600454801561036f575f600481905560015490546103249183916001600160a01b039081169116611250565b5f546040519182526001600160a01b0316907f91db5d4a67c499bdf5cae8da755af68efc6296507ccebecf1f1aeb70b799d7fb90602090a260015f5160206112d25f395f51905f5255005b62df439f60e81b5f5260045ffd5b3461019b575f36600319011261019b576020600254604051908152f35b3461019b575f36600319011261019b576103b26111f2565b335f526006602052600260405f200154801561043057335f818152600660205260408120600201556001546103f19183916001600160a01b0316611250565b6040519081527ff0015a56dd924d608ce6c5729e2083095b5aa522321cf1baefce60637341e34c60203392a260015f5160206112d25f395f51905f5255005b63177b02e160e31b5f5260045ffd5b3461019b57602036600319011261019b576004355f52600560205260405f206040519061046b82611047565b8054825260018101546001600160a01b0316602083019081529061049160028201611137565b6040840152600381015492606081019384526105056104b260048401611137565b806080840152600660ff6005860154161515948560a08601520154928360c0820152519460018060a01b03905116955160405196879687526020870152604086015260c0606086015260c08501906110db565b91608084015260a08301520390f35b3461019b57602036600319011261019b5760043561053061122a565b6107d0811161056a576020817f45610d581145924dd7090a5017e5f2b1d6f42213bb2e95707ff86846bbfcb1ca92600255604051908152a1005b60405162461bcd60e51b815260206004820152601660248201527546656520746f6f206869676820286d6178203230252960501b6044820152606490fd5b3461019b57604036600319011261019b576004355f818152600560205260409020600181015460243591906001600160a01b0316330361018c57811561061b57817f2632f9f215a9d4e060233752c6b3601cb9bf0075be4af3f004dc9f4742eaf1f39260036020930155604051908152a2005b50637cb1974360e11b5f5260045260245ffd5b3461019b575f36600319011261019b575f546040516001600160a01b039091168152602090f35b3461019b57602036600319011261019b576004355f908152600560205260409020805460018201546001600160a01b03169161069360028201611137565b6106e960038301546106a760048501611137565b6106d6600660ff600588015416960154946040519889988952602089015260e0604089015260e08801906110db565b91606087015285820360808701526110db565b91151560a084015260c08301520390f35b3461019b575f36600319011261019b5761071261122a565b5f80546001600160a01b0319811682556001600160a01b03167f8be0079c531659141344cd1fd0a4f28419497f9722a3daafe3b4186f6b6457e08280a3005b3461019b57602036600319011261019b576001600160a01b03610772611031565b165f526006602052606060405f20600181015490600360028201549101549060405192835260208301526040820152f35b3461019b57602036600319011261019b57600435805f52600560205260405f209081541561083d57335f52600760205260405f20905f5260205260ff60405f2054161580610826575b610817576107ff60026108139201611137565b6040519182916020835260208301906110db565b0390f35b634ca8886760e01b5f5260045ffd5b5060018101546001600160a01b03163314156107ec565b63b4705b1d60e01b5f5260045260245ffd5b3461019b575f36600319011261019b576020600454604051908152f35b3461019b575f36600319011261019b576001546040516001600160a01b039091168152602090f35b3461019b57602036600319011261019b576004356108b06111f2565b805f52600560205260405f209081541561083d5760ff60058301541615610adf57600182019060018060a01b038254163314610ad057335f52600760205260405f20815f5260205260ff60405f205416610abe5760038301928354600254808202908282041482151715610aaa57612710900491828203918211610aaa57600690335f52600760205260405f20855f5260205260405f20600160ff198254161790550161095d81546111d7565b905583546001600160a01b03165f9081526006602052604090206001018054610985906111d7565b905560018060a01b038454165f526006602052600360405f20016109aa8282546111e5565b905560018060a01b038454165f5260066020526109cf600260405f20019182546111e5565b90556109dd816004546111e5565b60045560018060a01b036001541692845493604051946323b872dd60e01b5f52336004523060245260445260205f60648180855af160015f5114811615610a8b575b856040525f60605215610a79575060018060a01b039054169354835260208301527fbe6177108f4df43c5d7be79cb219c969fc97915bbdb4b56d14d391dcdcc1606060403393a460015f5160206112d25f395f51905f5255005b635274afe760e01b5f5260045260245ffd5b6001811516610aa157813b15153d151616610a1f565b853d5f823e3d90fd5b634e487b7160e01b5f52601160045260245ffd5b632dade1d360e11b5f5260045260245ffd5b6317744bbd60e31b5f5260045ffd5b6348f02acd60e01b5f5260045260245ffd5b3461019b57602036600319011261019b576004355f81815260056020526040902060018101546001600160a01b0316330361018c57600501805460ff8116610b625760ff191660011790557fe7c62b2859afee542d7d3bafec10271d164958518351825f2b72cd6ce0b92e635f80a2005b63611ba40f60e01b5f5260045ffd5b3461019b57606036600319011261019b5760043567ffffffffffffffff811161019b57610ba2903690600401611085565b6024359060443567ffffffffffffffff811161019b57610bc6903690600401611085565b91815115610f78578015610f6657825115610f5757610be66003546111d7565b8060035560405190610bf782611047565b808252602082013381526040830185815260608401908582526080850197885260a08501926001845260c08601945f86525f52600560205260405f2095518655600186019060018060a01b039051166bffffffffffffffffffffffff60a01b82541617905560028501905180519067ffffffffffffffff8211610dce578190610c8084546110ff565b601f8111610f07575b50602090601f8311600114610ea4575f92610e99575b50508160011b915f199060031b1c19161790555b51600384015560048301955195865167ffffffffffffffff8111610dce57610cdb82546110ff565b601f8111610e54575b506020601f8211600114610ded5781906006969798995f92610de2575b50508160011b915f199060031b1c19161790555b600584019051151560ff8019835416911617905551910155335f52600660205260405f20906003549282549368010000000000000000851015610dce5760018501808555851015610dba576020947f899c32fbd27a24397979837f3acd7bfee4a37ee60b2d2f1a0643a725f39a7a49945f52855f200155600354928391610da7604051916040835260408301906110db565b93868201528033940390a3604051908152f35b634e487b7160e01b5f52603260045260245ffd5b634e487b7160e01b5f52604160045260245ffd5b015190508980610d01565b601f19821698835f52815f20995f5b818110610e3c57509160069798999a91846001959410610e24575b505050811b019055610d15565b01515f1960f88460031b161c19169055898080610e17565b838301518c556001909b019a60209384019301610dfc565b825f5260205f20601f830160051c81019160208410610e8f575b601f0160051c01905b818110610e845750610ce4565b5f8155600101610e77565b9091508190610e6e565b015190508a80610c9f565b5f8581528281209350601f198516905b818110610eef5750908460019594939210610ed7575b505050811b019055610cb3565b01515f1960f88460031b161c191690558a8080610eca565b92936020600181928786015181550195019301610eb4565b909150835f5260205f20601f840160051c81019160208510610f4d575b90601f859493920160051c01905b818110610f3f5750610c89565b5f8155849350600101610f32565b9091508190610f24565b632ef1310560e01b5f5260045ffd5b637cb1974360e11b5f5260045260245ffd5b63063ee91d60e41b5f5260045ffd5b3461019b575f36600319011261019b576020600354604051908152f35b3461019b57604036600319011261019b576001600160a01b03610fc5611031565b165f52600760205260405f206024355f52602052602060ff60405f2054166040519015158152f35b3461019b57604036600319011261019b576020906001600160a01b03611011611031565b165f526007825260405f206024355f52825260ff60405f20541615158152f35b600435906001600160a01b038216820361019b57565b60e0810190811067ffffffffffffffff821117610dce57604052565b90601f8019910116810190811067ffffffffffffffff821117610dce57604052565b81601f8201121561019b5780359067ffffffffffffffff8211610dce57604051926110ba601f8401601f191660200185611063565b8284526020838301011161019b57815f926020809301838601378301015290565b805180835260209291819084018484015e5f828201840152601f01601f1916010190565b90600182811c9216801561112d575b602083101461111957565b634e487b7160e01b5f52602260045260245ffd5b91607f169161110e565b9060405191825f82549261114a846110ff565b80845293600181169081156111b55750600114611171575b5061116f92500383611063565b565b90505f9291925260205f20905f915b81831061119957505090602061116f928201015f611162565b6020919350806001915483858901015201910190918492611180565b90506020925061116f94915060ff191682840152151560051b8201015f611162565b5f198114610aaa5760010190565b91908201809211610aaa57565b60025f5160206112d25f395f51905f52541461121b5760025f5160206112d25f395f51905f5255565b633ee5aeb560e01b5f5260045ffd5b5f546001600160a01b0316330361123d57565b63118cdaa760e01b5f523360045260245ffd5b916040519163a9059cbb60e01b5f5260018060a01b031660045260245260205f60448180865af19060015f51148216156112b0575b604052156112905750565b635274afe760e01b5f9081526001600160a01b0391909116600452602490fd5b9060018115166112c857823b15153d15161690611285565b503d5f823e3d90fdfe9b779b17422d0df92223018b32b4d1fa46e071723d6817e2486d003becc55f00a2646970667358221220dc55aa50f3258e81370a899de6466f9c4fb67cee63f372f381f824c58a51d22064736f6c634300081d0033000000000000000000000000191786980c31b2c2a731cf795b0f72fa8fc6274100000000000000000000000000000000000000000000000000000000000001f4",
        "nonce": "0x1a",
        "chainId": "0xaa36a7"
      },
      "additionalContracts": [],
      "isFixedGasLimit": false
    },
    {
      "hash": "0xe4e9f857a3f24e5fcce6631d54e69e72d45f008a18238f2564f0c3b9a15c455e",
      "transactionType": "CALL",
      "contractName": "MNEEToken",
      "contractAddress": "0x191786980c31b2c2a731cf795b0f72fa8fc62741",
      "function": "mint(address,uint256)",
      "arguments": [
        "0x2063749185849Ab38CB114Aabb386F6057652709",
        "10000000000000000000000"
      ],
      "transaction": {
        "from": "0x0f05831e0544c390c547109f5d9d72267727bd9a",
        "to": "0x191786980c31b2c2a731cf795b0f72fa8fc62741",
        "gas": "0x11efc",
        "value": "0x0",
        "input": "0x40c10f190000000000000000000000002063749185849ab38cb114aabb386f605765270900000000000000000000000000000000000000000000021e19e0c9bab2400000",
        "nonce": "0x1b",
        "chainId": "0xaa36a7"
      },
      "additionalContracts": [],
      "isFixedGasLimit": false
    },
    {
      "hash": "0x9d9273c9b2773c9880074581dea222f4ab64f3607ee064764d0c561a7bc503ab",
      "transactionType": "CALL",
      "contractName": "MNEEToken",
      "contractAddress": "0x191786980c31b2c2a731cf795b0f72fa8fc62741",
      "function": "mint(address,uint256)",
      "arguments": [
        "0x3034fe2e5806036B22267aAbC766c3Db282abC6e",
        "10000000000000000000000"
      ],
      "transaction": {
        "from": "0x0f05831e0544c390c547109f5d9d72267727bd9a",
        "to": "0x191786980c31b2c2a731cf795b0f72fa8fc62741",
        "gas": "0x11efc",
        "value": "0x0",
        "input": "0x40c10f190000000000000000000000003034fe2e5806036b22267aabc766c3db282abc6e00000000000000000000000000000000000000000000021e19e0c9bab2400000",
        "nonce": "0x1c",
        "chainId": "0xaa36a7"
      },
      "additionalContracts": [],
      "isFixedGasLimit": false
    },
    {
      "hash": "0x83f8efa6b0ef8e55bb9894bd695d2e6e20dca04d59d36e6467468508840b3b4c",
      "transactionType": "CALL",
      "contractName": "MNEEToken",
      "contractAddress": "0x191786980c31b2c2a731cf795b0f72fa8fc62741",
      "function": "mint(address,uint256)",
      "arguments": [
        "0x0D9855475Ce11052E7E02BC90ce9ad5c7512226c",
        "10000000000000000000000"
      ],
      "transaction": {
        "from": "0x0f05831e0544c390c547109f5d9d72267727bd9a",
        "to": "0x191786980c31b2c2a731cf795b0f72fa8fc62741",
        "gas": "0x11efc",
        "value": "0x0",
        "input": "0x40c10f190000000000000000000000000d9855475ce11052e7e02bc90ce9ad5c7512226c00000000000000000000000000000000000000000000021e19e0c9bab2400000",
        "nonce": "0x1d",
        "chainId": "0xaa36a7"
      },
      "additionalContracts": [],
      "isFixedGasLimit": false
    },
    {
      "hash": "0x1d8bcadbb283557be138b202c066755524540c1e74c0bed0d3612a78669b0626",
      "transactionType": "CALL",
      "contractName": "MNEEToken",
      "contractAddress": "0x191786980c31b2c2a731cf795b0f72fa8fc62741",
      "function": "mint(address,uint256)",
      "arguments": [
        "0x7167DA9ac8478C85c9fD5E5a26f1a4310022622e",
        "10000000000000000000000"
      ],
      "transaction": {
        "from": "0x0f05831e0544c390c547109f5d9d72267727bd9a",
        "to": "0x191786980c31b2c2a731cf795b0f72fa8fc62741",
        "gas": "0x12fcc",
        "value": "0x0",
        "input": "0x40c10f190000000000000000000000007167da9ac8478c85c9fd5e5a26f1a4310022622e00000000000000000000000000000000000000000000021e19e0c9bab2400000",
        "nonce": "0x1e",
        "chainId": "0xaa36a7"
      },
      "additionalContracts": [],
      "isFixedGasLimit": false
    },
    {
      "hash": "0x57a0540c3e44a466c47372e31fc345d0facd37f04f2f2afc21725c7982e286f6",
      "transactionType": "CALL",
      "contractName": "MneeMart",
      "contractAddress": "0xac965de56a92faf07a34436350d0b6d64366cdc1",
      "function": "listProduct(string,uint256,string)",
      "arguments": [
        "QmEbook12345",
        "20000000000000000000",
        "Complete Solidity Guide"
      ],
      "transaction": {
        "from": "0x2063749185849ab38cb114aabb386f6057652709",
        "to": "0xac965de56a92faf07a34436350d0b6d64366cdc1",
        "gas": "0x51b92",
        "value": "0x0",
        "input": "0x30e6834f0000000000000000000000000000000000000000000000000000000000000060000000000000000000000000000000000000000000000001158e460913d0000000000000000000000000000000000000000000000000000000000000000000a0000000000000000000000000000000000000000000000000000000000000000c516d45626f6f6b313233343500000000000000000000000000000000000000000000000000000000000000000000000000000000000000000000000000000017436f6d706c65746520536f6c6964697479204775696465000000000000000000",
        "nonce": "0x0",
        "chainId": "0xaa36a7"
      },
      "additionalContracts": [],
      "isFixedGasLimit": false
    },
    {
      "hash": "0x098814b1404da08c53c41da7c4e1024523120fa868210decf99e0d4e4d03a6a9",
      "transactionType": "CALL",
      "contractName": "MneeMart",
      "contractAddress": "0xac965de56a92faf07a34436350d0b6d64366cdc1",
      "function": "listProduct(string,uint256,string)",
      "arguments": [
        "QmCourse67890",
        "99000000000000000000",
        "Web3 Development Masterclass"
      ],
      "transaction": {
        "from": "0x2063749185849ab38cb114aabb386f6057652709",
        "to": "0xac965de56a92faf07a34436350d0b6d64366cdc1",
        "gas": "0x4589a",
        "value": "0x0",
        "input": "0x30e6834f00000000000000000000000000000000000000000000000000000000000000600000000000000000000000000000000000000000000000055de6a779bbac000000000000000000000000000000000000000000000000000000000000000000a0000000000000000000000000000000000000000000000000000000000000000d516d436f75727365363738393000000000000000000000000000000000000000000000000000000000000000000000000000000000000000000000000000001c5765623320446576656c6f706d656e74204d6173746572636c61737300000000",
        "nonce": "0x1",
        "chainId": "0xaa36a7"
      },
      "additionalContracts": [],
      "isFixedGasLimit": false
    },
    {
      "hash": "0x32f6d83fa60f3e7c99de92bfd472b42287029ea2be89d42987ea66c2190423b1",
      "transactionType": "CALL",
      "contractName": "MneeMart",
      "contractAddress": "0xac965de56a92faf07a34436350d0b6d64366cdc1",
      "function": "listProduct(string,uint256,string)",
      "arguments": [
        "QmTemplate111",
        "19990000000000000000",
        "NFT Marketplace Template"
      ],
      "transaction": {
        "from": "0x3034fe2e5806036b22267aabc766c3db282abc6e",
        "to": "0xac965de56a92faf07a34436350d0b6d64366cdc1",
        "gas": "0x476ca",
        "value": "0x0",
        "input": "0x30e6834f0000000000000000000000000000000000000000000000000000000000000060000000000000000000000000000000000000000000000001156abf16a40f000000000000000000000000000000000000000000000000000000000000000000a0000000000000000000000000000000000000000000000000000000000000000d516d54656d706c6174653131310000000000000000000000000000000000000000000000000000000000000000000000000000000000000000000000000000184e4654204d61726b6574706c6163652054656d706c6174650000000000000000",
        "nonce": "0x2",
        "chainId": "0xaa36a7"
      },
      "additionalContracts": [],
      "isFixedGasLimit": false
    },
    {
      "hash": "0x5ccec99688def916047a5e984d7d4d1f0a3bbe8422b5a07cbbde6341ed731317",
      "transactionType": "CALL",
      "contractName": "MneeMart",
      "contractAddress": "0xac965de56a92faf07a34436350d0b6d64366cdc1",
      "function": "listProduct(string,uint256,string)",
      "arguments": [
        "QmAudio222",
        "4990000000000000000",
        "Royalty-Free Music Pack"
      ],
      "transaction": {
        "from": "0x3034fe2e5806036b22267aabc766c3db282abc6e",
        "to": "0xac965de56a92faf07a34436350d0b6d64366cdc1",
        "gas": "0x41a35",
        "value": "0x0",
        "input": "0x30e6834f000000000000000000000000000000000000000000000000000000000000006000000000000000000000000000000000000000000000000045400a8fd533000000000000000000000000000000000000000000000000000000000000000000a0000000000000000000000000000000000000000000000000000000000000000a516d417564696f323232000000000000000000000000000000000000000000000000000000000000000000000000000000000000000000000000000000000017526f79616c74792d46726565204d75736963205061636b000000000000000000",
        "nonce": "0x3",
        "chainId": "0xaa36a7"
      },
      "additionalContracts": [],
      "isFixedGasLimit": false
    },
    {
      "hash": "0x41f9f938685b92b7c25912a780c26dfb81d95737561e750803b1bd5a0df91210",
      "transactionType": "CALL",
      "contractName": "MNEEToken",
      "contractAddress": "0x191786980c31b2c2a731cf795b0f72fa8fc62741",
      "function": "approve(address,uint256)",
      "arguments": [
        "0xaC965de56A92FaF07A34436350d0B6d64366CDc1",
        "20000000000000000000"
      ],
      "transaction": {
        "from": "0x0d9855475ce11052e7e02bc90ce9ad5c7512226c",
        "to": "0x191786980c31b2c2a731cf795b0f72fa8fc62741",
        "gas": "0x1069d",
        "value": "0x0",
        "input": "0x095ea7b3000000000000000000000000ac965de56a92faf07a34436350d0b6d64366cdc1000000000000000000000000000000000000000000000001158e460913d00000",
        "nonce": "0x0",
        "chainId": "0xaa36a7"
      },
      "additionalContracts": [],
      "isFixedGasLimit": false
    },
    {
      "hash": "0x62933cfaafd74679aaba69a53e758790e667ca0023a93b49f9a25a8c05422789",
      "transactionType": "CALL",
      "contractName": "MneeMart",
      "contractAddress": "0xac965de56a92faf07a34436350d0b6d64366cdc1",
      "function": "purchaseProduct(uint256)",
      "arguments": [
        "1"
      ],
      "transaction": {
        "from": "0x0d9855475ce11052e7e02bc90ce9ad5c7512226c",
        "to": "0xac965de56a92faf07a34436350d0b6d64366cdc1",
        "gas": "0x459b1",
        "value": "0x0",
        "input": "0x38e76a030000000000000000000000000000000000000000000000000000000000000001",
        "nonce": "0x1",
        "chainId": "0xaa36a7"
      },
      "additionalContracts": [],
      "isFixedGasLimit": false
    },
    {
      "hash": "0x4ddcf3eb12f6cd412f68bb1488333d29a463637aed713e0b0bcfb0d4208a01d3",
      "transactionType": "CALL",
      "contractName": "MNEEToken",
      "contractAddress": "0x191786980c31b2c2a731cf795b0f72fa8fc62741",
      "function": "approve(address,uint256)",
      "arguments": [
        "0xaC965de56A92FaF07A34436350d0B6d64366CDc1",
        "99000000000000000000"
      ],
      "transaction": {
        "from": "0x7167da9ac8478c85c9fd5e5a26f1a4310022622e",
        "to": "0x191786980c31b2c2a731cf795b0f72fa8fc62741",
        "gas": "0x1069d",
        "value": "0x0",
        "input": "0x095ea7b3000000000000000000000000ac965de56a92faf07a34436350d0b6d64366cdc10000000000000000000000000000000000000000000000055de6a779bbac0000",
        "nonce": "0x0",
        "chainId": "0xaa36a7"
      },
      "additionalContracts": [],
      "isFixedGasLimit": false
    },
    {
      "hash": "0x976502f5b99794eec3e23e1b5674960ada8baee19834f5cd133fec7ed99136bb",
      "transactionType": "CALL",
      "contractName": "MneeMart",
      "contractAddress": "0xac965de56a92faf07a34436350d0b6d64366cdc1",
      "function": "purchaseProduct(uint256)",
      "arguments": [
        "2"
      ],
      "transaction": {
        "from": "0x7167da9ac8478c85c9fd5e5a26f1a4310022622e",
        "to": "0xac965de56a92faf07a34436350d0b6d64366cdc1",
        "gas": "0x28c61",
        "value": "0x0",
        "input": "0x38e76a030000000000000000000000000000000000000000000000000000000000000002",
        "nonce": "0x1",
        "chainId": "0xaa36a7"
      },
      "additionalContracts": [],
      "isFixedGasLimit": false
    },
    {
      "hash": "0x2140a03b5d6abbb8e8b5bcb1e2e8117a2a8853124b542a3ef0266e6e0e806f1c",
      "transactionType": "CALL",
      "contractName": "MNEEToken",
      "contractAddress": "0x191786980c31b2c2a731cf795b0f72fa8fc62741",
      "function": "approve(address,uint256)",
      "arguments": [
        "0xaC965de56A92FaF07A34436350d0B6d64366CDc1",
        "19990000000000000000"
      ],
      "transaction": {
        "from": "0x7167da9ac8478c85c9fd5e5a26f1a4310022622e",
        "to": "0x191786980c31b2c2a731cf795b0f72fa8fc62741",
        "gas": "0x1069d",
        "value": "0x0",
        "input": "0x095ea7b3000000000000000000000000ac965de56a92faf07a34436350d0b6d64366cdc1000000000000000000000000000000000000000000000001156abf16a40f0000",
        "nonce": "0x2",
        "chainId": "0xaa36a7"
      },
      "additionalContracts": [],
      "isFixedGasLimit": false
    },
    {
      "hash": "0xbc3a83e533bd73c09759ae69e147116f5239fcaaa95d3bfc5f577fee2ea28089",
      "transactionType": "CALL",
      "contractName": "MneeMart",
      "contractAddress": "0xac965de56a92faf07a34436350d0b6d64366cdc1",
      "function": "purchaseProduct(uint256)",
      "arguments": [
        "3"
      ],
      "transaction": {
        "from": "0x7167da9ac8478c85c9fd5e5a26f1a4310022622e",
        "to": "0xac965de56a92faf07a34436350d0b6d64366cdc1",
        "gas": "0x3a12b",
        "value": "0x0",
        "input": "0x38e76a030000000000000000000000000000000000000000000000000000000000000003",
        "nonce": "0x3",
        "chainId": "0xaa36a7"
      },
      "additionalContracts": [],
      "isFixedGasLimit": false
    },
    {
      "hash": "0x267f164991a70fdcf8131d44e111317794816aa96012556b6d7030f4b395cdc1",
      "transactionType": "CALL",
      "contractName": "MNEEToken",
      "contractAddress": "0x191786980c31b2c2a731cf795b0f72fa8fc62741",
      "function": "approve(address,uint256)",
      "arguments": [
        "0xaC965de56A92FaF07A34436350d0B6d64366CDc1",
        "4990000000000000000"
      ],
      "transaction": {
        "from": "0x0d9855475ce11052e7e02bc90ce9ad5c7512226c",
        "to": "0x191786980c31b2c2a731cf795b0f72fa8fc62741",
        "gas": "0xf7f5",
        "value": "0x0",
        "input": "0x095ea7b3000000000000000000000000ac965de56a92faf07a34436350d0b6d64366cdc100000000000000000000000000000000000000000000000045400a8fd5330000",
        "nonce": "0x2",
        "chainId": "0xaa36a7"
      },
      "additionalContracts": [],
      "isFixedGasLimit": false
    },
    {
      "hash": "0x5553f7b9a66dffc0989c645d056b0380162c89da7d7846dd1dd0a0b10ec02c68",
      "transactionType": "CALL",
      "contractName": "MneeMart",
      "contractAddress": "0xac965de56a92faf07a34436350d0b6d64366cdc1",
      "function": "purchaseProduct(uint256)",
      "arguments": [
        "4"
      ],
      "transaction": {
        "from": "0x0d9855475ce11052e7e02bc90ce9ad5c7512226c",
        "to": "0xac965de56a92faf07a34436350d0b6d64366cdc1",
        "gas": "0x28c61",
        "value": "0x0",
        "input": "0x38e76a030000000000000000000000000000000000000000000000000000000000000004",
        "nonce": "0x3",
        "chainId": "0xaa36a7"
      },
      "additionalContracts": [],
      "isFixedGasLimit": false
    },
    {
      "hash": "0xe9629899817fc31b5f8d877c539268c406711fb106ca1af555ea75b8e683dcd2",
      "transactionType": "CALL",
      "contractName": "MneeMart",
      "contractAddress": "0xac965de56a92faf07a34436350d0b6d64366cdc1",
      "function": "withdrawSellerBalance()",
      "arguments": [],
      "transaction": {
        "from": "0x2063749185849ab38cb114aabb386f6057652709",
        "to": "0xac965de56a92faf07a34436350d0b6d64366cdc1",
        "gas": "0xe93f",
        "value": "0x0",
        "input": "0xc65dc2b3",
        "nonce": "0x2",
        "chainId": "0xaa36a7"
      },
      "additionalContracts": [],
      "isFixedGasLimit": false
    },
    {
      "hash": "0x004aed5feb4aae33f6055c54f6d4cbc6aadb3bfcc94a68f32785189fb9a1a52b",
      "transactionType": "CALL",
      "contractName": "MneeMart",
      "contractAddress": "0xac965de56a92faf07a34436350d0b6d64366cdc1",
      "function": "updateProductPrice(uint256,uint256)",
      "arguments": [
        "1",
        "25000000000000000000"
      ],
      "transaction": {
        "from": "0x2063749185849ab38cb114aabb386f6057652709",
        "to": "0xac965de56a92faf07a34436350d0b6d64366cdc1",
        "gas": "0xae45",
        "value": "0x0",
        "input": "0x9c3bddb200000000000000000000000000000000000000000000000000000000000000010000000000000000000000000000000000000000000000015af1d78b58c40000",
        "nonce": "0x3",
        "chainId": "0xaa36a7"
      },
      "additionalContracts": [],
      "isFixedGasLimit": false
    },
    {
      "hash": "0x51aed554a8a5fe5b916bc024457ee8f1e65365dc8ba9a142c44a32e5d2765c8c",
      "transactionType": "CALL",
      "contractName": "MneeMart",
      "contractAddress": "0xac965de56a92faf07a34436350d0b6d64366cdc1",
      "function": "deactivateProduct(uint256)",
      "arguments": [
        "4"
      ],
      "transaction": {
        "from": "0x3034fe2e5806036b22267aabc766c3db282abc6e",
        "to": "0xac965de56a92faf07a34436350d0b6d64366cdc1",
        "gas": "0x88fe",
        "value": "0x0",
        "input": "0xfd77e5de0000000000000000000000000000000000000000000000000000000000000004",
        "nonce": "0x4",
        "chainId": "0xaa36a7"
      },
      "additionalContracts": [],
      "isFixedGasLimit": false
    },
    {
      "hash": "0xf375e445a9f548c4c33365ccdbf4b2645f6fb437ca58bbd0ccfb505802f4b0e1",
      "transactionType": "CALL",
      "contractName": "MneeMart",
      "contractAddress": "0xac965de56a92faf07a34436350d0b6d64366cdc1",
      "function": "activateProduct(uint256)",
      "arguments": [
        "4"
      ],
      "transaction": {
        "from": "0x3034fe2e5806036b22267aabc766c3db282abc6e",
        "to": "0xac965de56a92faf07a34436350d0b6d64366cdc1",
        "gas": "0x10c10",
        "value": "0x0",
        "input": "0x32f662f60000000000000000000000000000000000000000000000000000000000000004",
        "nonce": "0x5",
        "chainId": "0xaa36a7"
      },
      "additionalContracts": [],
      "isFixedGasLimit": false
    },
    {
      "hash": "0xe9f57604befaeef8029a1bb404ff16d49b52512c34d8ba7d926a16daf37f0cb1",
      "transactionType": "CALL",
      "contractName": "MneeMart",
      "contractAddress": "0xac965de56a92faf07a34436350d0b6d64366cdc1",
      "function": "withdrawSellerBalance()",
      "arguments": [],
      "transaction": {
        "from": "0x3034fe2e5806036b22267aabc766c3db282abc6e",
        "to": "0xac965de56a92faf07a34436350d0b6d64366cdc1",
        "gas": "0xe93f",
        "value": "0x0",
        "input": "0xc65dc2b3",
        "nonce": "0x6",
        "chainId": "0xaa36a7"
      },
      "additionalContracts": [],
      "isFixedGasLimit": false
    },
    {
      "hash": "0x91617dce075618cabe3c56b12937e315b9e0f154108d64d583ddd0762debf6f9",
      "transactionType": "CALL",
      "contractName": "MneeMart",
      "contractAddress": "0xac965de56a92faf07a34436350d0b6d64366cdc1",
      "function": "withdrawPlatformFees()",
      "arguments": [],
      "transaction": {
        "from": "0x0f05831e0544c390c547109f5d9d72267727bd9a",
        "to": "0xac965de56a92faf07a34436350d0b6d64366cdc1",
        "gas": "0xe564",
        "value": "0x0",
        "input": "0xd0b7830b",
        "nonce": "0x1f",
        "chainId": "0xaa36a7"
      },
      "additionalContracts": [],
      "isFixedGasLimit": false
    }
  ],
  "receipts": [
    {
      "status": "0x1",
      "cumulativeGasUsed": "0x10d6269",
      "logs": [
        {
          "address": "0x191786980c31b2c2a731cf795b0f72fa8fc62741",
          "topics": [
            "0x8be0079c531659141344cd1fd0a4f28419497f9722a3daafe3b4186f6b6457e0",
            "0x0000000000000000000000000000000000000000000000000000000000000000",
            "0x0000000000000000000000000f05831e0544c390c547109f5d9d72267727bd9a"
          ],
          "data": "0x",
          "blockHash": "0xc5962c6907eea08f5900b1bcfb9bcd6cea8df365cbd8b29480c952ae9917fa3b",
          "blockNumber": "0x97baf8",
          "blockTimestamp": "0x69537fd8",
          "transactionHash": "0x3358bdef243ec68fa7aa7bb505b9aa33272069bdec4a41fbcbc787e0eb5e54e7",
          "transactionIndex": "0x53",
          "logIndex": "0xf4",
          "removed": false
        },
        {
          "address": "0x191786980c31b2c2a731cf795b0f72fa8fc62741",
          "topics": [
            "0xddf252ad1be2c89b69c2b068fc378daa952ba7f163c4a11628f55a4df523b3ef",
            "0x0000000000000000000000000000000000000000000000000000000000000000",
            "0x0000000000000000000000000f05831e0544c390c547109f5d9d72267727bd9a"
          ],
          "data": "0x00000000000000000000000000000000000000000000d3c21bcecceda1000000",
          "blockHash": "0xc5962c6907eea08f5900b1bcfb9bcd6cea8df365cbd8b29480c952ae9917fa3b",
          "blockNumber": "0x97baf8",
          "blockTimestamp": "0x69537fd8",
          "transactionHash": "0x3358bdef243ec68fa7aa7bb505b9aa33272069bdec4a41fbcbc787e0eb5e54e7",
          "transactionIndex": "0x53",
          "logIndex": "0xf5",
          "removed": false
        }
      ],
      "logsBloom": "0x00000000000000000000000000000000000000000000000000800000000000000000000000000000000000000800000000000000000000000000000000000000000000000000000000000008000000000001000000000000000000000000000000000000020000000000000000000800000000000000000000000010000000400000000000000000000000000000000000000000000000000000000000000000000000000000020000000000000000000000000000000000000000000000000000000002000000000000000000000000000000400000020000000000000020000000000000000000000000000000000001000000000000040000000000000000",
      "type": "0x2",
      "transactionHash": "0x3358bdef243ec68fa7aa7bb505b9aa33272069bdec4a41fbcbc787e0eb5e54e7",
      "transactionIndex": "0x53",
      "blockHash": "0xc5962c6907eea08f5900b1bcfb9bcd6cea8df365cbd8b29480c952ae9917fa3b",
      "blockNumber": "0x97baf8",
      "gasUsed": "0x98fad",
      "effectiveGasPrice": "0x110ee4",
      "from": "0x0f05831e0544c390c547109f5d9d72267727bd9a",
      "to": null,
      "contractAddress": "0x191786980c31b2c2a731cf795b0f72fa8fc62741"
    },
    {
      "status": "0x1",
      "cumulativeGasUsed": "0xc2e1e5",
      "logs": [
        {
          "address": "0xac965de56a92faf07a34436350d0b6d64366cdc1",
          "topics": [
            "0x8be0079c531659141344cd1fd0a4f28419497f9722a3daafe3b4186f6b6457e0",
            "0x0000000000000000000000000000000000000000000000000000000000000000",
            "0x0000000000000000000000000f05831e0544c390c547109f5d9d72267727bd9a"
          ],
          "data": "0x",
          "blockHash": "0xb2ea5fb10d22161720aa2be2a90cf7bdd64db5028f0e07c62974f26f26b63c6d",
          "blockNumber": "0x97baf9",
          "blockTimestamp": "0x69537ff0",
          "transactionHash": "0x39230fee9b6f079f7d4f469ee9d16fd9e1dafe41127c1194766d0a7f12a97986",
          "transactionIndex": "0x2d",
          "logIndex": "0x95",
          "removed": false
        }
      ],
      "logsBloom": "0x00000000000000000000000000000000000000000000000000800000000000000000000000000002000000000800000000000000000000000000000000000000000000000000000000000000000000000001000000000000000000000000000000000000020000000000000000000800000000000000000000000100000000400000000000000000000000000000000000000000000000000000000000000000000000000000000000000000000000000000000000000000000000000000000000001000000000000000000000000000000000400000000000000000000020000000000000000000000000000000000000000000000000040000000000000000",
      "type": "0x2",
      "transactionHash": "0x39230fee9b6f079f7d4f469ee9d16fd9e1dafe41127c1194766d0a7f12a97986",
      "transactionIndex": "0x2d",
      "blockHash": "0xb2ea5fb10d22161720aa2be2a90cf7bdd64db5028f0e07c62974f26f26b63c6d",
      "blockNumber": "0x97baf9",
      "gasUsed": "0x1273b6",
      "effectiveGasPrice": "0x110ee4",
      "from": "0x0f05831e0544c390c547109f5d9d72267727bd9a",
      "to": null,
      "contractAddress": "0xac965de56a92faf07a34436350d0b6d64366cdc1"
    },
    {
      "status": "0x1",
      "cumulativeGasUsed": "0x85d798",
      "logs": [
        {
          "address": "0x191786980c31b2c2a731cf795b0f72fa8fc62741",
          "topics": [
            "0xddf252ad1be2c89b69c2b068fc378daa952ba7f163c4a11628f55a4df523b3ef",
            "0x0000000000000000000000000000000000000000000000000000000000000000",
            "0x0000000000000000000000002063749185849ab38cb114aabb386f6057652709"
          ],
          "data": "0x00000000000000000000000000000000000000000000021e19e0c9bab2400000",
          "blockHash": "0x0029fb4b610b0df2e42c2af7176b9645c26ee50f59f3548137393ebd8bf8e5bf",
          "blockNumber": "0x97bafa",
          "blockTimestamp": "0x69537ffc",
          "transactionHash": "0xe4e9f857a3f24e5fcce6631d54e69e72d45f008a18238f2564f0c3b9a15c455e",
          "transactionIndex": "0x38",
          "logIndex": "0x73",
          "removed": false
        }
      ],
      "logsBloom": "0x00000000000000000000000000000000000000000000000000000000000000000000000000000000000000000000000000002000000000000000000000000000000000001000000000000008000000000000000000000000000000000000000000000000020000000000000000000800000000000000000000000010000000000000000000000000000000000000000000000000000000000000000000000000000000000000020000000000000000000000000000000000000000000000000000000002000000000000000000000000000000000000020000000000000020000000000000000000000000000000000001000000000000000200000000000000",
      "type": "0x2",
      "transactionHash": "0xe4e9f857a3f24e5fcce6631d54e69e72d45f008a18238f2564f0c3b9a15c455e",
      "transactionIndex": "0x38",
      "blockHash": "0x0029fb4b610b0df2e42c2af7176b9645c26ee50f59f3548137393ebd8bf8e5bf",
      "blockNumber": "0x97bafa",
      "gasUsed": "0xcfc6",
      "effectiveGasPrice": "0x110ee4",
      "from": "0x0f05831e0544c390c547109f5d9d72267727bd9a",
      "to": "0x191786980c31b2c2a731cf795b0f72fa8fc62741",
      "contractAddress": null
    },
    {
      "status": "0x1",
      "cumulativeGasUsed": "0xe72ffe",
      "logs": [
        {
          "address": "0x191786980c31b2c2a731cf795b0f72fa8fc62741",
          "topics": [
            "0xddf252ad1be2c89b69c2b068fc378daa952ba7f163c4a11628f55a4df523b3ef",
            "0x0000000000000000000000000000000000000000000000000000000000000000",
            "0x0000000000000000000000003034fe2e5806036b22267aabc766c3db282abc6e"
          ],
          "data": "0x00000000000000000000000000000000000000000000021e19e0c9bab2400000",
          "blockHash": "0x0d9e6998eacd40584658a77372abddfc0592085fa3570db407e38d0cc56decaf",
          "blockNumber": "0x97bafb",
          "blockTimestamp": "0x69538008",
          "transactionHash": "0x9d9273c9b2773c9880074581dea222f4ab64f3607ee064764d0c561a7bc503ab",
          "transactionIndex": "0x2f",
          "logIndex": "0x79",
          "removed": false
        }
      ],
      "logsBloom": "0x00000000000000000000000000000000000000000000000000000000000000000000000000000000000000000000000000000000000000000000000000000000000000000000000000000008000000000000000000000000000000000000000000000000020000000000000000000800000000000000000000000010000000000000010000000000000000000000000000000000000000000000000000000000000000000000020000000000400000000000000000000000000000000000000000000002000000000000000000000000000000000000020000000000000020000000000000000000000000000000008001000000000000000000000000000000",
      "type": "0x2",
      "transactionHash": "0x9d9273c9b2773c9880074581dea222f4ab64f3607ee064764d0c561a7bc503ab",
      "transactionIndex": "0x2f",
      "blockHash": "0x0d9e6998eacd40584658a77372abddfc0592085fa3570db407e38d0cc56decaf",
      "blockNumber": "0x97bafb",
      "gasUsed": "0xcfc6",
      "effectiveGasPrice": "0x110ee4",
      "from": "0x0f05831e0544c390c547109f5d9d72267727bd9a",
      "to": "0x191786980c31b2c2a731cf795b0f72fa8fc62741",
      "contractAddress": null
    },
    {
      "status": "0x1",
      "cumulativeGasUsed": "0xaef291",
      "logs": [
        {
          "address": "0x191786980c31b2c2a731cf795b0f72fa8fc62741",
          "topics": [
            "0xddf252ad1be2c89b69c2b068fc378daa952ba7f163c4a11628f55a4df523b3ef",
            "0x0000000000000000000000000000000000000000000000000000000000000000",
            "0x0000000000000000000000000d9855475ce11052e7e02bc90ce9ad5c7512226c"
          ],
          "data": "0x00000000000000000000000000000000000000000000021e19e0c9bab2400000",
          "blockHash": "0x525c8137ca62c6a95a308e8ca75808787b76a9f4518671764dc4b80d02830b14",
          "blockNumber": "0x97bafc",
          "blockTimestamp": "0x69538014",
          "transactionHash": "0x83f8efa6b0ef8e55bb9894bd695d2e6e20dca04d59d36e6467468508840b3b4c",
          "transactionIndex": "0x3b",
          "logIndex": "0x79",
          "removed": false
        }
      ],
      "logsBloom": "0x00000000000000000000000000000000000000000000000000000000000000000000000000000000000000000000000000000000000000000000000010000000000000000000000000000008000010000000000000000000000000000000000000000000020000000000000400000800000000000000000000000010000000000000000000000000000000000000000000000000000000000000000000000000000000000000020000000000000000000000000000000000000000000000000000000002000000000000000000000000000000000000020000000000000020000000000000000000000000000000000001000000000000000000000000000000",
      "type": "0x2",
      "transactionHash": "0x83f8efa6b0ef8e55bb9894bd695d2e6e20dca04d59d36e6467468508840b3b4c",
      "transactionIndex": "0x3b",
      "blockHash": "0x525c8137ca62c6a95a308e8ca75808787b76a9f4518671764dc4b80d02830b14",
      "blockNumber": "0x97bafc",
      "gasUsed": "0xcfc6",
      "effectiveGasPrice": "0x110ee4",
      "from": "0x0f05831e0544c390c547109f5d9d72267727bd9a",
      "to": "0x191786980c31b2c2a731cf795b0f72fa8fc62741",
      "contractAddress": null
    },
    {
      "status": "0x1",
      "cumulativeGasUsed": "0xee4940",
      "logs": [
        {
          "address": "0x191786980c31b2c2a731cf795b0f72fa8fc62741",
          "topics": [
            "0xddf252ad1be2c89b69c2b068fc378daa952ba7f163c4a11628f55a4df523b3ef",
            "0x0000000000000000000000000000000000000000000000000000000000000000",
            "0x0000000000000000000000007167da9ac8478c85c9fd5e5a26f1a4310022622e"
          ],
          "data": "0x00000000000000000000000000000000000000000000021e19e0c9bab2400000",
          "blockHash": "0xe5fbf7de987743b86dffe27c3e390a284b9c69cbe7a047ce4d973562fb4a090c",
          "blockNumber": "0x97bafd",
          "blockTimestamp": "0x69538020",
          "transactionHash": "0x1d8bcadbb283557be138b202c066755524540c1e74c0bed0d3612a78669b0626",
          "transactionIndex": "0x35",
          "logIndex": "0x8f",
          "removed": false
        }
      ],
      "logsBloom": "0x0000000000000000000000000000000000000000000000000000000000000000000000000000000000000000000000000000000000000000000000000000000000000000a000000000000008000000000000000000000000000000000000000000000000020000000000000000000800000000000000000000000010000080000000000000000000000000000000000000000000000000000000000000000000000000000000020000000000000000000000000000000000000000000000000000000002000000000000000000000000000000000000020000000000000020000000000000000000000000000000000001000000000000000000000000000000",
      "type": "0x2",
      "transactionHash": "0x1d8bcadbb283557be138b202c066755524540c1e74c0bed0d3612a78669b0626",
      "transactionIndex": "0x35",
      "blockHash": "0xe5fbf7de987743b86dffe27c3e390a284b9c69cbe7a047ce4d973562fb4a090c",
      "blockNumber": "0x97bafd",
      "gasUsed": "0xcfba",
      "effectiveGasPrice": "0x110ee4",
      "from": "0x0f05831e0544c390c547109f5d9d72267727bd9a",
      "to": "0x191786980c31b2c2a731cf795b0f72fa8fc62741",
      "contractAddress": null
    },
    {
      "status": "0x1",
      "cumulativeGasUsed": "0x137f048",
      "logs": [
        {
          "address": "0xac965de56a92faf07a34436350d0b6d64366cdc1",
          "topics": [
            "0x899c32fbd27a24397979837f3acd7bfee4a37ee60b2d2f1a0643a725f39a7a49",
            "0x0000000000000000000000000000000000000000000000000000000000000001",
            "0x0000000000000000000000002063749185849ab38cb114aabb386f6057652709"
          ],
          "data": "0x0000000000000000000000000000000000000000000000000000000000000040000000000000000000000000000000000000000000000001158e460913d00000000000000000000000000000000000000000000000000000000000000000000c516d45626f6f6b31323334350000000000000000000000000000000000000000",
          "blockHash": "0x48fdabe46582839662748cb4def9c4157e6a5aaecbe4d8160b7a6da5eb3e5a23",
          "blockNumber": "0x97bafe",
          "blockTimestamp": "0x6953802c",
          "transactionHash": "0x57a0540c3e44a466c47372e31fc345d0facd37f04f2f2afc21725c7982e286f6",
          "transactionIndex": "0x4f",
          "logIndex": "0xf8",
          "removed": false
        }
      ],
      "logsBloom": "0x00000000000000000000000000000000000000000000000000000000000000000000000000000002000000000000000400002000000000000000000000040000000000001000000000000000000000000000000000040000000000000000000000000000000000000000000000000000000000000000000000000100000020000000000000000000000000000000000000000000000000000000000000000000000000000000000000000000000000000000000000000000000000000000000000001000000000000000000000000000000000000000000000000000000040000000000000000000000000000000000000000001000000000200000000000000",
      "type": "0x2",
      "transactionHash": "0x57a0540c3e44a466c47372e31fc345d0facd37f04f2f2afc21725c7982e286f6",
      "transactionIndex": "0x4f",
      "blockHash": "0x48fdabe46582839662748cb4def9c4157e6a5aaecbe4d8160b7a6da5eb3e5a23",
      "blockNumber": "0x97bafe",
      "gasUsed": "0x37e11",
      "effectiveGasPrice": "0x110ee4",
      "from": "0x2063749185849ab38cb114aabb386f6057652709",
      "to": "0xac965de56a92faf07a34436350d0b6d64366cdc1",
      "contractAddress": null
    },
    {
      "status": "0x1",
      "cumulativeGasUsed": "0x1ab54c7",
      "logs": [
        {
          "address": "0xac965de56a92faf07a34436350d0b6d64366cdc1",
          "topics": [
            "0x899c32fbd27a24397979837f3acd7bfee4a37ee60b2d2f1a0643a725f39a7a49",
            "0x0000000000000000000000000000000000000000000000000000000000000002",
            "0x0000000000000000000000002063749185849ab38cb114aabb386f6057652709"
          ],
          "data": "0x00000000000000000000000000000000000000000000000000000000000000400000000000000000000000000000000000000000000000055de6a779bbac0000000000000000000000000000000000000000000000000000000000000000000d516d436f75727365363738393000000000000000000000000000000000000000",
          "blockHash": "0x837e4110f5ae48fa5ba1acd957ccf03faa37824282fc66892a0290fffc3625e1",
          "blockNumber": "0x97baff",
          "blockTimestamp": "0x69538044",
          "transactionHash": "0x098814b1404da08c53c41da7c4e1024523120fa868210decf99e0d4e4d03a6a9",
          "transactionIndex": "0x55",
          "logIndex": "0x13e",
          "removed": false
        }
      ],
      "logsBloom": "0x04000000000000000000000000000000000000000000000000000000000000000000000000000002000000000000000400002000000000000000000000000000000000001000000000000000000000000000000000000000000000000000000000000000000000000000000000000000000000000000000000000100000020000000000000000000000000000000000000000000000000000000000000000000000000000000000000000100000000000000000000000000000000000000000000001000000000000000000000000000000000000000000000000000000000000000000000000000000000000000000000000001008000000200000000000000",
      "type": "0x2",
      "transactionHash": "0x098814b1404da08c53c41da7c4e1024523120fa868210decf99e0d4e4d03a6a9",
      "transactionIndex": "0x55",
      "blockHash": "0x837e4110f5ae48fa5ba1acd957ccf03faa37824282fc66892a0290fffc3625e1",
      "blockNumber": "0x97baff",
      "gasUsed": "0x2f8c1",
      "effectiveGasPrice": "0x110ee4",
      "from": "0x2063749185849ab38cb114aabb386f6057652709",
      "to": "0xac965de56a92faf07a34436350d0b6d64366cdc1",
      "contractAddress": null
    },
    {
      "status": "0x1",
      "cumulativeGasUsed": "0x1114c9c",
      "logs": [
        {
          "address": "0xac965de56a92faf07a34436350d0b6d64366cdc1",
          "topics": [
            "0x899c32fbd27a24397979837f3acd7bfee4a37ee60b2d2f1a0643a725f39a7a49",
            "0x0000000000000000000000000000000000000000000000000000000000000003",
            "0x0000000000000000000000003034fe2e5806036b22267aabc766c3db282abc6e"
          ],
          "data": "0x0000000000000000000000000000000000000000000000000000000000000040000000000000000000000000000000000000000000000001156abf16a40f0000000000000000000000000000000000000000000000000000000000000000000d516d54656d706c61746531313100000000000000000000000000000000000000",
          "blockHash": "0x6f5e2ca8fc315c0807f96dae725aea050e90f9e91774bcb5ef72e932519357c9",
          "blockNumber": "0x97bb00",
          "blockTimestamp": "0x6953805c",
          "transactionHash": "0x32f6d83fa60f3e7c99de92bfd472b42287029ea2be89d42987ea66c2190423b1",
          "transactionIndex": "0x68",
          "logIndex": "0x114",
          "removed": false
        }
      ],
      "logsBloom": "0x00000000000000000000000000000000000000000000000000000000000000000000000000000002000000000000000400000000020000000000000000000000000000000000000000000000000000000000000000000000000000000000000000000000000000000000000000000000000000000000000000000100000020000000010000000000000000000000000000000000000000000000000000000000000000000000000000000000400000000000000000800000000000000000400000001000000000000000000000000000000000000000000000000000000000000000000000000000000000000000008000000001000000000000000000000000",
      "type": "0x2",
      "transactionHash": "0x32f6d83fa60f3e7c99de92bfd472b42287029ea2be89d42987ea66c2190423b1",
      "transactionIndex": "0x68",
      "blockHash": "0x6f5e2ca8fc315c0807f96dae725aea050e90f9e91774bcb5ef72e932519357c9",
      "blockNumber": "0x97bb00",
      "gasUsed": "0x33b5d",
      "effectiveGasPrice": "0x110ee5",
      "from": "0x3034fe2e5806036b22267aabc766c3db282abc6e",
      "to": "0xac965de56a92faf07a34436350d0b6d64366cdc1",
      "contractAddress": null
    },
    {
      "status": "0x1",
      "cumulativeGasUsed": "0xb878d5",
      "logs": [
        {
          "address": "0xac965de56a92faf07a34436350d0b6d64366cdc1",
          "topics": [
            "0x899c32fbd27a24397979837f3acd7bfee4a37ee60b2d2f1a0643a725f39a7a49",
            "0x0000000000000000000000000000000000000000000000000000000000000004",
            "0x0000000000000000000000003034fe2e5806036b22267aabc766c3db282abc6e"
          ],
          "data": "0x000000000000000000000000000000000000000000000000000000000000004000000000000000000000000000000000000000000000000045400a8fd5330000000000000000000000000000000000000000000000000000000000000000000a516d417564696f32323200000000000000000000000000000000000000000000",
          "blockHash": "0x5a4b53753cd58b8773e06dcf323a8e604537c1504dfad8b1600bfe05b8e64c42",
          "blockNumber": "0x97bb01",
          "blockTimestamp": "0x69538068",
          "transactionHash": "0x5ccec99688def916047a5e984d7d4d1f0a3bbe8422b5a07cbbde6341ed731317",
          "transactionIndex": "0x32",
          "logIndex": "0x84",
          "removed": false
        }
      ],
      "logsBloom": "0x00000000000000000000000000000000000000000000000000000000000000000000000000000002000000000000000400000000000000000000000000000000000000000000000000000000000000000000000000000000000000000000000008000000000000000000000000000000000000000000000000000100000020000000010000000000000000000000000000000000000000000000000000000000000000000000000000000000400000000000000000000000002000000000000000001000000000000000000000000000000000008000000000000000000000000000000000000000000000000000008000000001000000000000000000000000",
      "type": "0x2",
      "transactionHash": "0x5ccec99688def916047a5e984d7d4d1f0a3bbe8422b5a07cbbde6341ed731317",
      "transactionIndex": "0x32",
      "blockHash": "0x5a4b53753cd58b8773e06dcf323a8e604537c1504dfad8b1600bfe05b8e64c42",
      "blockNumber": "0x97bb01",
      "gasUsed": "0x2f855",
      "effectiveGasPrice": "0x110ee6",
      "from": "0x3034fe2e5806036b22267aabc766c3db282abc6e",
      "to": "0xac965de56a92faf07a34436350d0b6d64366cdc1",
      "contractAddress": null
    },
    {
      "status": "0x1",
      "cumulativeGasUsed": "0xb165c4",
      "logs": [
        {
          "address": "0x191786980c31b2c2a731cf795b0f72fa8fc62741",
          "topics": [
            "0x8c5be1e5ebec7d5bd14f71427d1e84f3dd0314c0f7b2291e5b200ac8c7c3b925",
            "0x0000000000000000000000000d9855475ce11052e7e02bc90ce9ad5c7512226c",
            "0x000000000000000000000000ac965de56a92faf07a34436350d0b6d64366cdc1"
          ],
          "data": "0x000000000000000000000000000000000000000000000001158e460913d00000",
          "blockHash": "0x9b0fb4efd09bb9fcc50c7c9655707cace0fd3c510f584d26d2b4fd842cb1c541",
          "blockNumber": "0x97bb02",
          "blockTimestamp": "0x69538074",
          "transactionHash": "0x41f9f938685b92b7c25912a780c26dfb81d95737561e750803b1bd5a0df91210",
          "transactionIndex": "0x48",
          "logIndex": "0xa4",
          "removed": false
        }
      ],
      "logsBloom": "0x00000000000000000000000000000000000000000000000000000000000000000000000000000000000000000000000000000000000000000000002010200000000000000000000000000000000010000000000000000000000000000040000000000000000000200000000400000000000000000000000000000000000000000000000000000000000000000000000000000000000000000000000000000000020000000000020000000000000000000000000000000000000000000000000000000000000000000000000000000000000000000000020000000000000000000010000000000000000000000000000001000000000000000000000000000000",
      "type": "0x2",
      "transactionHash": "0x41f9f938685b92b7c25912a780c26dfb81d95737561e750803b1bd5a0df91210",
      "transactionIndex": "0x48",
      "blockHash": "0x9b0fb4efd09bb9fcc50c7c9655707cace0fd3c510f584d26d2b4fd842cb1c541",
      "blockNumber": "0x97bb02",
      "gasUsed": "0xb391",
      "effectiveGasPrice": "0x110ee6",
      "from": "0x0d9855475ce11052e7e02bc90ce9ad5c7512226c",
      "to": "0x191786980c31b2c2a731cf795b0f72fa8fc62741",
      "contractAddress": null
    },
    {
      "status": "0x1",
      "cumulativeGasUsed": "0x9bf4ad",
      "logs": [
        {
          "address": "0x191786980c31b2c2a731cf795b0f72fa8fc62741",
          "topics": [
            "0xddf252ad1be2c89b69c2b068fc378daa952ba7f163c4a11628f55a4df523b3ef",
            "0x0000000000000000000000000d9855475ce11052e7e02bc90ce9ad5c7512226c",
            "0x000000000000000000000000ac965de56a92faf07a34436350d0b6d64366cdc1"
          ],
          "data": "0x000000000000000000000000000000000000000000000001158e460913d00000",
          "blockHash": "0xe3789ce15cb3138bc67827dd7df8bdca3f166858680908399ecacaa919ecea6a",
          "blockNumber": "0x97bb03",
          "blockTimestamp": "0x69538080",
          "transactionHash": "0x62933cfaafd74679aaba69a53e758790e667ca0023a93b49f9a25a8c05422789",
          "transactionIndex": "0x30",
          "logIndex": "0xa0",
          "removed": false
        },
        {
          "address": "0xac965de56a92faf07a34436350d0b6d64366cdc1",
          "topics": [
            "0xbe6177108f4df43c5d7be79cb219c969fc97915bbdb4b56d14d391dcdcc16060",
            "0x0000000000000000000000000000000000000000000000000000000000000001",
            "0x0000000000000000000000000d9855475ce11052e7e02bc90ce9ad5c7512226c",
            "0x0000000000000000000000002063749185849ab38cb114aabb386f6057652709"
          ],
          "data": "0x000000000000000000000000000000000000000000000001158e460913d000000000000000000000000000000000000000000000000000000de0b6b3a7640000",
          "blockHash": "0xe3789ce15cb3138bc67827dd7df8bdca3f166858680908399ecacaa919ecea6a",
          "blockNumber": "0x97bb03",
          "blockTimestamp": "0x69538080",
          "transactionHash": "0x62933cfaafd74679aaba69a53e758790e667ca0023a93b49f9a25a8c05422789",
          "transactionIndex": "0x30",
          "logIndex": "0xa1",
          "removed": false
        }
      ],
      "logsBloom": "0x00000000000000000000000000000000000000000000000000000000000000000000000000000002000000000000000000002000000000000000002010040000000000001000000000000008000010000000000000040000000000000040000000000000000000200000000600000000000000000000000000000110000000000000000000000000000000000000000000000000000000000000100000000000000000000000020000000000000000000000000000000000000000000000000000001002000000000000000000000000000000000000020000000000000040000000000000000000000000000000000001008000000000000200000000000000",
      "type": "0x2",
      "transactionHash": "0x62933cfaafd74679aaba69a53e758790e667ca0023a93b49f9a25a8c05422789",
      "transactionIndex": "0x30",
      "blockHash": "0xe3789ce15cb3138bc67827dd7df8bdca3f166858680908399ecacaa919ecea6a",
      "blockNumber": "0x97bb03",
      "gasUsed": "0x3264c",
      "effectiveGasPrice": "0x110ee6",
      "from": "0x0d9855475ce11052e7e02bc90ce9ad5c7512226c",
      "to": "0xac965de56a92faf07a34436350d0b6d64366cdc1",
      "contractAddress": null
    },
    {
      "status": "0x1",
      "cumulativeGasUsed": "0xf15f35",
      "logs": [
        {
          "address": "0x191786980c31b2c2a731cf795b0f72fa8fc62741",
          "topics": [
            "0x8c5be1e5ebec7d5bd14f71427d1e84f3dd0314c0f7b2291e5b200ac8c7c3b925",
            "0x0000000000000000000000007167da9ac8478c85c9fd5e5a26f1a4310022622e",
            "0x000000000000000000000000ac965de56a92faf07a34436350d0b6d64366cdc1"
          ],
          "data": "0x0000000000000000000000000000000000000000000000055de6a779bbac0000",
          "blockHash": "0x64f9a4ec6394680ab864a2865004a5402282b4d0db90d17fffa738c399db5082",
          "blockNumber": "0x97bb04",
          "blockTimestamp": "0x6953808c",
          "transactionHash": "0x4ddcf3eb12f6cd412f68bb1488333d29a463637aed713e0b0bcfb0d4208a01d3",
          "transactionIndex": "0x52",
          "logIndex": "0xe3",
          "removed": false
        }
      ],
      "logsBloom": "0x0000000000000000000000000000000000000000000000000000000000000000000000000000000000000000000000000000000000000000000000200020000000000000a000000000000000000000000000000000000000000000000040000000000000000000200000000000000000000000000000000000000000000080000000000000000000000000000000000000000000000000000000000000000000020000000000020000000000000000000000000000000000000000000000000000000000000000000000000000000000000000000000020000000000000000000010000000000000000000000000000001000000000000000000000000000000",
      "type": "0x2",
      "transactionHash": "0x4ddcf3eb12f6cd412f68bb1488333d29a463637aed713e0b0bcfb0d4208a01d3",
      "transactionIndex": "0x52",
      "blockHash": "0x64f9a4ec6394680ab864a2865004a5402282b4d0db90d17fffa738c399db5082",
      "blockNumber": "0x97bb04",
      "gasUsed": "0xb391",
      "effectiveGasPrice": "0x110ee6",
      "from": "0x7167da9ac8478c85c9fd5e5a26f1a4310022622e",
      "to": "0x191786980c31b2c2a731cf795b0f72fa8fc62741",
      "contractAddress": null
    },
    {
      "status": "0x1",
      "cumulativeGasUsed": "0xb5520a",
      "logs": [
        {
          "address": "0x191786980c31b2c2a731cf795b0f72fa8fc62741",
          "topics": [
            "0xddf252ad1be2c89b69c2b068fc378daa952ba7f163c4a11628f55a4df523b3ef",
            "0x0000000000000000000000007167da9ac8478c85c9fd5e5a26f1a4310022622e",
            "0x000000000000000000000000ac965de56a92faf07a34436350d0b6d64366cdc1"
          ],
          "data": "0x0000000000000000000000000000000000000000000000055de6a779bbac0000",
          "blockHash": "0x8510c2c2cb2347ea69da9a4fdff0c8a68fe8f9b3d1933145b885d02e3807e571",
          "blockNumber": "0x97bb05",
          "blockTimestamp": "0x69538098",
          "transactionHash": "0x976502f5b99794eec3e23e1b5674960ada8baee19834f5cd133fec7ed99136bb",
          "transactionIndex": "0x39",
          "logIndex": "0xd2",
          "removed": false
        },
        {
          "address": "0xac965de56a92faf07a34436350d0b6d64366cdc1",
          "topics": [
            "0xbe6177108f4df43c5d7be79cb219c969fc97915bbdb4b56d14d391dcdcc16060",
            "0x0000000000000000000000000000000000000000000000000000000000000002",
            "0x0000000000000000000000007167da9ac8478c85c9fd5e5a26f1a4310022622e",
            "0x0000000000000000000000002063749185849ab38cb114aabb386f6057652709"
          ],
          "data": "0x0000000000000000000000000000000000000000000000055de6a779bbac000000000000000000000000000000000000000000000000000044b1eec6162f0000",
          "blockHash": "0x8510c2c2cb2347ea69da9a4fdff0c8a68fe8f9b3d1933145b885d02e3807e571",
          "blockNumber": "0x97bb05",
          "blockTimestamp": "0x69538098",
          "transactionHash": "0x976502f5b99794eec3e23e1b5674960ada8baee19834f5cd133fec7ed99136bb",
          "transactionIndex": "0x39",
          "logIndex": "0xd3",
          "removed": false
        }
      ],
      "logsBloom": "0x0400000000000000000000000000000000000000000000000000000000000000000000000000000200000000000000000000200000000000000000200000000000000000b000000000000008000000000000000000000000000000000040000000000000000000200000000200000000000000000000000000000110000080000000000000000000000000000000000000000000000000000000100000000000000000000000020000000100000000000000000000000000000000000000000000001002000000000000000000000000000000000000020000000000000000000000000000000000000000000000000001008000008000000200000000000000",
      "type": "0x2",
      "transactionHash": "0x976502f5b99794eec3e23e1b5674960ada8baee19834f5cd133fec7ed99136bb",
      "transactionIndex": "0x39",
      "blockHash": "0x8510c2c2cb2347ea69da9a4fdff0c8a68fe8f9b3d1933145b885d02e3807e571",
      "blockNumber": "0x97bb05",
      "gasUsed": "0x1d850",
      "effectiveGasPrice": "0x110ee6",
      "from": "0x7167da9ac8478c85c9fd5e5a26f1a4310022622e",
      "to": "0xac965de56a92faf07a34436350d0b6d64366cdc1",
      "contractAddress": null
    },
    {
      "status": "0x1",
      "cumulativeGasUsed": "0x8ed1e4",
      "logs": [
        {
          "address": "0x191786980c31b2c2a731cf795b0f72fa8fc62741",
          "topics": [
            "0x8c5be1e5ebec7d5bd14f71427d1e84f3dd0314c0f7b2291e5b200ac8c7c3b925",
            "0x0000000000000000000000007167da9ac8478c85c9fd5e5a26f1a4310022622e",
            "0x000000000000000000000000ac965de56a92faf07a34436350d0b6d64366cdc1"
          ],
          "data": "0x000000000000000000000000000000000000000000000001156abf16a40f0000",
          "blockHash": "0x16047580dd893f9f5ede7e2623810b4ce45f006146bad26e16e7d62089fd5802",
          "blockNumber": "0x97bb06",
          "blockTimestamp": "0x695380a4",
          "transactionHash": "0x2140a03b5d6abbb8e8b5bcb1e2e8117a2a8853124b542a3ef0266e6e0e806f1c",
          "transactionIndex": "0x33",
          "logIndex": "0x69",
          "removed": false
        }
      ],
      "logsBloom": "0x0000000000000000000000000000000000000000000000000000000000000000000000000000000000000000000000000000000000000000000000200020000000000000a000000000000000000000000000000000000000000000000040000000000000000000200000000000000000000000000000000000000000000080000000000000000000000000000000000000000000000000000000000000000000020000000000020000000000000000000000000000000000000000000000000000000000000000000000000000000000000000000000020000000000000000000010000000000000000000000000000001000000000000000000000000000000",
      "type": "0x2",
      "transactionHash": "0x2140a03b5d6abbb8e8b5bcb1e2e8117a2a8853124b542a3ef0266e6e0e806f1c",
      "transactionIndex": "0x33",
      "blockHash": "0x16047580dd893f9f5ede7e2623810b4ce45f006146bad26e16e7d62089fd5802",
      "blockNumber": "0x97bb06",
      "gasUsed": "0xb391",
      "effectiveGasPrice": "0x110ee6",
      "from": "0x7167da9ac8478c85c9fd5e5a26f1a4310022622e",
      "to": "0x191786980c31b2c2a731cf795b0f72fa8fc62741",
      "contractAddress": null
    },
    {
      "status": "0x1",
      "cumulativeGasUsed": "0x111a774",
      "logs": [
        {
          "address": "0x191786980c31b2c2a731cf795b0f72fa8fc62741",
          "topics": [
            "0xddf252ad1be2c89b69c2b068fc378daa952ba7f163c4a11628f55a4df523b3ef",
            "0x0000000000000000000000007167da9ac8478c85c9fd5e5a26f1a4310022622e",
            "0x000000000000000000000000ac965de56a92faf07a34436350d0b6d64366cdc1"
          ],
          "data": "0x000000000000000000000000000000000000000000000001156abf16a40f0000",
          "blockHash": "0x4fc8b642cdb3ff73374dad38051a8f2d2b6ecc9acc39a8d8409108e5dba4cda0",
          "blockNumber": "0x97bb07",
          "blockTimestamp": "0x695380b0",
          "transactionHash": "0xbc3a83e533bd73c09759ae69e147116f5239fcaaa95d3bfc5f577fee2ea28089",
          "transactionIndex": "0x54",
          "logIndex": "0x11f",
          "removed": false
        },
        {
          "address": "0xac965de56a92faf07a34436350d0b6d64366cdc1",
          "topics": [
            "0xbe6177108f4df43c5d7be79cb219c969fc97915bbdb4b56d14d391dcdcc16060",
            "0x0000000000000000000000000000000000000000000000000000000000000003",
            "0x0000000000000000000000007167da9ac8478c85c9fd5e5a26f1a4310022622e",
            "0x0000000000000000000000003034fe2e5806036b22267aabc766c3db282abc6e"
          ],
          "data": "0x000000000000000000000000000000000000000000000001156abf16a40f00000000000000000000000000000000000000000000000000000ddeeff45500c000",
          "blockHash": "0x4fc8b642cdb3ff73374dad38051a8f2d2b6ecc9acc39a8d8409108e5dba4cda0",
          "blockNumber": "0x97bb07",
          "blockTimestamp": "0x695380b0",
          "transactionHash": "0xbc3a83e533bd73c09759ae69e147116f5239fcaaa95d3bfc5f577fee2ea28089",
          "transactionIndex": "0x54",
          "logIndex": "0x120",
          "removed": false
        }
      ],
      "logsBloom": "0x0000000000000000000000000000000000000000000000000000000000000000000000000000000200000000000000000000000002000000000000200000000000000000a000000000000008000000000000000000000000000000000040000000000000000000200000000200000000000000000000000000000110000080000000010000000000000000000000000000000000000000000000100000000000000000000000020000000000400000000000000000800000000000000000400000001002000000000000000000000000000000000000020000000000000000000000000000000000000000000000008001008000000000000000000000000000",
      "type": "0x2",
      "transactionHash": "0xbc3a83e533bd73c09759ae69e147116f5239fcaaa95d3bfc5f577fee2ea28089",
      "transactionIndex": "0x54",
      "blockHash": "0x4fc8b642cdb3ff73374dad38051a8f2d2b6ecc9acc39a8d8409108e5dba4cda0",
      "blockNumber": "0x97bb07",
      "gasUsed": "0x2a0b4",
      "effectiveGasPrice": "0x110ee6",
      "from": "0x7167da9ac8478c85c9fd5e5a26f1a4310022622e",
      "to": "0xac965de56a92faf07a34436350d0b6d64366cdc1",
      "contractAddress": null
    },
    {
      "status": "0x1",
      "cumulativeGasUsed": "0xe00dc4",
      "logs": [
        {
          "address": "0x191786980c31b2c2a731cf795b0f72fa8fc62741",
          "topics": [
            "0x8c5be1e5ebec7d5bd14f71427d1e84f3dd0314c0f7b2291e5b200ac8c7c3b925",
            "0x0000000000000000000000000d9855475ce11052e7e02bc90ce9ad5c7512226c",
            "0x000000000000000000000000ac965de56a92faf07a34436350d0b6d64366cdc1"
          ],
          "data": "0x00000000000000000000000000000000000000000000000045400a8fd5330000",
          "blockHash": "0x72e7093be96e65418f835905cd2d16847d662608d93ea3ee9b2bfe19c452ebbf",
          "blockNumber": "0x97bb08",
          "blockTimestamp": "0x695380bc",
          "transactionHash": "0x267f164991a70fdcf8131d44e111317794816aa96012556b6d7030f4b395cdc1",
          "transactionIndex": "0x32",
          "logIndex": "0x81",
          "removed": false
        }
      ],
      "logsBloom": "0x00000000000000000000000000000000000000000000000000000000000000000000000000000000000000000000000000000000000000000000002010200000000000000000000000000000000010000000000000000000000000000040000000000000000000200000000400000000000000000000000000000000000000000000000000000000000000000000000000000000000000000000000000000000020000000000020000000000000000000000000000000000000000000000000000000000000000000000000000000000000000000000020000000000000000000010000000000000000000000000000001000000000000000000000000000000",
      "type": "0x2",
      "transactionHash": "0x267f164991a70fdcf8131d44e111317794816aa96012556b6d7030f4b395cdc1",
      "transactionIndex": "0x32",
      "blockHash": "0x72e7093be96e65418f835905cd2d16847d662608d93ea3ee9b2bfe19c452ebbf",
      "blockNumber": "0x97bb08",
      "gasUsed": "0xb385",
      "effectiveGasPrice": "0x110ee6",
      "from": "0x0d9855475ce11052e7e02bc90ce9ad5c7512226c",
      "to": "0x191786980c31b2c2a731cf795b0f72fa8fc62741",
      "contractAddress": null
    },
    {
      "status": "0x1",
      "cumulativeGasUsed": "0xbef5ce",
      "logs": [
        {
          "address": "0x191786980c31b2c2a731cf795b0f72fa8fc62741",
          "topics": [
            "0xddf252ad1be2c89b69c2b068fc378daa952ba7f163c4a11628f55a4df523b3ef",
            "0x0000000000000000000000000d9855475ce11052e7e02bc90ce9ad5c7512226c",
            "0x000000000000000000000000ac965de56a92faf07a34436350d0b6d64366cdc1"
          ],
          "data": "0x00000000000000000000000000000000000000000000000045400a8fd5330000",
          "blockHash": "0xcb827d09d9057864f9577a3c5dadcb7923f93c1baa0c035e8b5b7a9124b2e04d",
          "blockNumber": "0x97bb09",
          "blockTimestamp": "0x695380c8",
          "transactionHash": "0x5553f7b9a66dffc0989c645d056b0380162c89da7d7846dd1dd0a0b10ec02c68",
          "transactionIndex": "0x37",
          "logIndex": "0xbe",
          "removed": false
        },
        {
          "address": "0xac965de56a92faf07a34436350d0b6d64366cdc1",
          "topics": [
            "0xbe6177108f4df43c5d7be79cb219c969fc97915bbdb4b56d14d391dcdcc16060",
            "0x0000000000000000000000000000000000000000000000000000000000000004",
            "0x0000000000000000000000000d9855475ce11052e7e02bc90ce9ad5c7512226c",
            "0x0000000000000000000000003034fe2e5806036b22267aabc766c3db282abc6e"
          ],
          "data": "0x00000000000000000000000000000000000000000000000045400a8fd5330000000000000000000000000000000000000000000000000000037666ed9775c000",
          "blockHash": "0xcb827d09d9057864f9577a3c5dadcb7923f93c1baa0c035e8b5b7a9124b2e04d",
          "blockNumber": "0x97bb09",
          "blockTimestamp": "0x695380c8",
          "transactionHash": "0x5553f7b9a66dffc0989c645d056b0380162c89da7d7846dd1dd0a0b10ec02c68",
          "transactionIndex": "0x37",
          "logIndex": "0xbf",
          "removed": false
        }
      ],
      "logsBloom": "0x00000000000000000000000000000000000000000000000000000000000000000000000000000002000000000000000000000000000000000000002010000000000000000000000000000008000010000000000000000000000000000040000008000000000000200000000600000000000000000000000000000110000000000000010000000000000000000000000000000000000000000000100000000000000000000000020000000000400000000000000000000000002000000000000000001002000000000000000000000000000000008000020000000000000000000000000000000000000000000000008001008000000000000000000000000000",
      "type": "0x2",
      "transactionHash": "0x5553f7b9a66dffc0989c645d056b0380162c89da7d7846dd1dd0a0b10ec02c68",
      "transactionIndex": "0x37",
      "blockHash": "0xcb827d09d9057864f9577a3c5dadcb7923f93c1baa0c035e8b5b7a9124b2e04d",
      "blockNumber": "0x97bb09",
      "gasUsed": "0x1d850",
      "effectiveGasPrice": "0x110ee6",
      "from": "0x0d9855475ce11052e7e02bc90ce9ad5c7512226c",
      "to": "0xac965de56a92faf07a34436350d0b6d64366cdc1",
      "contractAddress": null
    },
    {
      "status": "0x1",
      "cumulativeGasUsed": "0xc87106",
      "logs": [
        {
          "address": "0x191786980c31b2c2a731cf795b0f72fa8fc62741",
          "topics": [
            "0xddf252ad1be2c89b69c2b068fc378daa952ba7f163c4a11628f55a4df523b3ef",
            "0x000000000000000000000000ac965de56a92faf07a34436350d0b6d64366cdc1",
            "0x0000000000000000000000002063749185849ab38cb114aabb386f6057652709"
          ],
          "data": "0x00000000000000000000000000000000000000000000000620e2480911e90000",
          "blockHash": "0x59c1c7bc5141a7a1117b8e0ae5701ea5f8956381ae47d4f5461dcf6919bbb883",
          "blockNumber": "0x97bb0a",
          "blockTimestamp": "0x695380d4",
          "transactionHash": "0xe9629899817fc31b5f8d877c539268c406711fb106ca1af555ea75b8e683dcd2",
          "transactionIndex": "0x46",
          "logIndex": "0xae",
          "removed": false
        },
        {
          "address": "0xac965de56a92faf07a34436350d0b6d64366cdc1",
          "topics": [
            "0xf0015a56dd924d608ce6c5729e2083095b5aa522321cf1baefce60637341e34c",
            "0x0000000000000000000000002063749185849ab38cb114aabb386f6057652709"
          ],
          "data": "0x00000000000000000000000000000000000000000000000620e2480911e90000",
          "blockHash": "0x59c1c7bc5141a7a1117b8e0ae5701ea5f8956381ae47d4f5461dcf6919bbb883",
          "blockNumber": "0x97bb0a",
          "blockTimestamp": "0x695380d4",
          "transactionHash": "0xe9629899817fc31b5f8d877c539268c406711fb106ca1af555ea75b8e683dcd2",
          "transactionIndex": "0x46",
          "logIndex": "0xaf",
          "removed": false
        }
      ],
      "logsBloom": "0x00000000000000000000000000000000802000000000000000000000000000000000000000000002000000000000000000002000000000000000002000000000000000001000000000000008000000000000000000000000000000000040000000000000000000200000000000000000000000000000000000000110000000000000000000000000000000000000000000000000000000000000000000000000000000000000020000000000000000000000000000000400000000000000000000001002000000000000000000000000000000000000020000000000000000000000000000000000000000000000000001000000000000000200000000000000",
      "type": "0x2",
      "transactionHash": "0xe9629899817fc31b5f8d877c539268c406711fb106ca1af555ea75b8e683dcd2",
      "transactionIndex": "0x46",
      "blockHash": "0x59c1c7bc5141a7a1117b8e0ae5701ea5f8956381ae47d4f5461dcf6919bbb883",
      "blockNumber": "0x97bb0a",
      "gasUsed": "0xa8df",
      "effectiveGasPrice": "0x110ee6",
      "from": "0x2063749185849ab38cb114aabb386f6057652709",
      "to": "0xac965de56a92faf07a34436350d0b6d64366cdc1",
      "contractAddress": null
    },
    {
      "status": "0x1",
      "cumulativeGasUsed": "0xec27b3",
      "logs": [
        {
          "address": "0xac965de56a92faf07a34436350d0b6d64366cdc1",
          "topics": [
            "0x2632f9f215a9d4e060233752c6b3601cb9bf0075be4af3f004dc9f4742eaf1f3",
            "0x0000000000000000000000000000000000000000000000000000000000000001"
          ],
          "data": "0x0000000000000000000000000000000000000000000000015af1d78b58c40000",
          "blockHash": "0x1eb8aecb1e5cc75570b28630b9452ea933c496c2e6f422422e868f3b8a1d0eeb",
          "blockNumber": "0x97bb0b",
          "blockTimestamp": "0x695380e0",
          "transactionHash": "0x004aed5feb4aae33f6055c54f6d4cbc6aadb3bfcc94a68f32785189fb9a1a52b",
          "transactionIndex": "0x43",
          "logIndex": "0xc6",
          "removed": false
        }
      ],
      "logsBloom": "0x00000000000000000000000000000000000000000000000000000000000000000000000000000002000000000000000000000000000000000000000000040000000000000000000000000000000000000000000000040000000000000000000000000000000000000000000000000000000000000000000000000100000000000000000100000000000000000000000000000000000000000000000000000000000000000000000000000000000000000000000000040000000000000000000000001000000000000000000000000000000000000000000000000000000040001000000000000000000000000000000000000000000000000000000000000000",
      "type": "0x2",
      "transactionHash": "0x004aed5feb4aae33f6055c54f6d4cbc6aadb3bfcc94a68f32785189fb9a1a52b",
      "transactionIndex": "0x43",
      "blockHash": "0x1eb8aecb1e5cc75570b28630b9452ea933c496c2e6f422422e868f3b8a1d0eeb",
      "blockNumber": "0x97bb0b",
      "gasUsed": "0x7729",
      "effectiveGasPrice": "0x110ee6",
      "from": "0x2063749185849ab38cb114aabb386f6057652709",
      "to": "0xac965de56a92faf07a34436350d0b6d64366cdc1",
      "contractAddress": null
    },
    {
      "status": "0x1",
      "cumulativeGasUsed": "0x5ec6b9",
      "logs": [
        {
          "address": "0xac965de56a92faf07a34436350d0b6d64366cdc1",
          "topics": [
            "0x241c84b17626110b8c42e26f8f7de483066e7f266953509e01046f09e6fdd6cc",
            "0x0000000000000000000000000000000000000000000000000000000000000004"
          ],
          "data": "0x",
          "blockHash": "0x0a4c06a3fe5d0f65240b039909c351b4f9657d12be64b226e7e7a81758927801",
          "blockNumber": "0x97bb0c",
          "blockTimestamp": "0x695380ec",
          "transactionHash": "0x51aed554a8a5fe5b916bc024457ee8f1e65365dc8ba9a142c44a32e5d2765c8c",
          "transactionIndex": "0x2e",
          "logIndex": "0x67",
          "removed": false
        }
      ],
      "logsBloom": "0x00000000000000000000000000200000000000000000000000000000000000000000000000000002000000000000000000000000000000000000000000000000000000000000000000000000000000000000000000000000000000000000000008000000000000000000000000000000000000000000000000000100000000000000000000000000000000000000000000000000000000000000000000000000000000000000000000000000000000000000000000000000002000000000000000001000004000000000000000000000000000008000000000000000000000000000000000000000000000000000000000000000000000000000000000000000",
      "type": "0x2",
      "transactionHash": "0x51aed554a8a5fe5b916bc024457ee8f1e65365dc8ba9a142c44a32e5d2765c8c",
      "transactionIndex": "0x2e",
      "blockHash": "0x0a4c06a3fe5d0f65240b039909c351b4f9657d12be64b226e7e7a81758927801",
      "blockNumber": "0x97bb0c",
      "gasUsed": "0x632f",
      "effectiveGasPrice": "0x110ee6",
      "from": "0x3034fe2e5806036b22267aabc766c3db282abc6e",
      "to": "0xac965de56a92faf07a34436350d0b6d64366cdc1",
      "contractAddress": null
    },
    {
      "status": "0x1",
      "cumulativeGasUsed": "0x11e7540",
      "logs": [
        {
          "address": "0xac965de56a92faf07a34436350d0b6d64366cdc1",
          "topics": [
            "0xe7c62b2859afee542d7d3bafec10271d164958518351825f2b72cd6ce0b92e63",
            "0x0000000000000000000000000000000000000000000000000000000000000004"
          ],
          "data": "0x",
          "blockHash": "0xce3a6616ee4f2a5a8c32f195a96119124c537ef9112f56b40083eab6cbc63159",
          "blockNumber": "0x97bb0d",
          "blockTimestamp": "0x695380f8",
          "transactionHash": "0xf375e445a9f548c4c33365ccdbf4b2645f6fb437ca58bbd0ccfb505802f4b0e1",
          "transactionIndex": "0x55",
          "logIndex": "0xb1",
          "removed": false
        }
      ],
      "logsBloom": "0x00000000000000000000000000000000000000000000000008000000000000000000000000000002000000000008000000000000000000000000000000000000000000000000000000000000000000000000000000000000000000000000000008000000000000000000000000000000000000000000000000000100000000000000000000000000000000000000200000000000000000000000000000000000000000000000000000000000000000000000000000000000002000000000000000001000000000000000000000000000000000008000000000000000000000000000000000000000000000000000000000000000000000000000000000000000",
      "type": "0x2",
      "transactionHash": "0xf375e445a9f548c4c33365ccdbf4b2645f6fb437ca58bbd0ccfb505802f4b0e1",
      "transactionIndex": "0x55",
      "blockHash": "0xce3a6616ee4f2a5a8c32f195a96119124c537ef9112f56b40083eab6cbc63159",
      "blockNumber": "0x97bb0d",
      "gasUsed": "0xb74b",
      "effectiveGasPrice": "0x110ee5",
      "from": "0x3034fe2e5806036b22267aabc766c3db282abc6e",
      "to": "0xac965de56a92faf07a34436350d0b6d64366cdc1",
      "contractAddress": null
    },
    {
      "status": "0x1",
      "cumulativeGasUsed": "0x7ccb22",
      "logs": [
        {
          "address": "0x191786980c31b2c2a731cf795b0f72fa8fc62741",
          "topics": [
            "0xddf252ad1be2c89b69c2b068fc378daa952ba7f163c4a11628f55a4df523b3ef",
            "0x000000000000000000000000ac965de56a92faf07a34436350d0b6d64366cdc1",
            "0x0000000000000000000000003034fe2e5806036b22267aabc766c3db282abc6e"
          ],
          "data": "0x000000000000000000000000000000000000000000000001495572c48ccb8000",
          "blockHash": "0x7a247ec5962ef1236c1db4b58e972df29e1e09cd27ec8200a476c2285129fd89",
          "blockNumber": "0x97bb0e",
          "blockTimestamp": "0x69538104",
          "transactionHash": "0xe9f57604befaeef8029a1bb404ff16d49b52512c34d8ba7d926a16daf37f0cb1",
          "transactionIndex": "0x2a",
          "logIndex": "0x62",
          "removed": false
        },
        {
          "address": "0xac965de56a92faf07a34436350d0b6d64366cdc1",
          "topics": [
            "0xf0015a56dd924d608ce6c5729e2083095b5aa522321cf1baefce60637341e34c",
            "0x0000000000000000000000003034fe2e5806036b22267aabc766c3db282abc6e"
          ],
          "data": "0x000000000000000000000000000000000000000000000001495572c48ccb8000",
          "blockHash": "0x7a247ec5962ef1236c1db4b58e972df29e1e09cd27ec8200a476c2285129fd89",
          "blockNumber": "0x97bb0e",
          "blockTimestamp": "0x69538104",
          "transactionHash": "0xe9f57604befaeef8029a1bb404ff16d49b52512c34d8ba7d926a16daf37f0cb1",
          "transactionIndex": "0x2a",
          "logIndex": "0x63",
          "removed": false
        }
      ],
      "logsBloom": "0x00000000000000000000000000000000802000000000000000000000000000000000000000000002000000000000000000000000000000000000002000000000000000000000000000000008000000000000000000000000000000000040000000000000000000200000000000000000000000000000000000000110000000000000010000000000000000000000000000000000000000000000000000000000000000000000020000000000400000000000000000000400000000000000000000001002000000000000000000000000000000000000020000000000000000000000000000000000000000000000008001000000000000000000000000000000",
      "type": "0x2",
      "transactionHash": "0xe9f57604befaeef8029a1bb404ff16d49b52512c34d8ba7d926a16daf37f0cb1",
      "transactionIndex": "0x2a",
      "blockHash": "0x7a247ec5962ef1236c1db4b58e972df29e1e09cd27ec8200a476c2285129fd89",
      "blockNumber": "0x97bb0e",
      "gasUsed": "0xa8df",
      "effectiveGasPrice": "0x110ee5",
      "from": "0x3034fe2e5806036b22267aabc766c3db282abc6e",
      "to": "0xac965de56a92faf07a34436350d0b6d64366cdc1",
      "contractAddress": null
    },
    {
      "status": "0x1",
      "cumulativeGasUsed": "0x7e049b",
      "logs": [
        {
          "address": "0x191786980c31b2c2a731cf795b0f72fa8fc62741",
          "topics": [
            "0xddf252ad1be2c89b69c2b068fc378daa952ba7f163c4a11628f55a4df523b3ef",
            "0x000000000000000000000000ac965de56a92faf07a34436350d0b6d64366cdc1",
            "0x0000000000000000000000000f05831e0544c390c547109f5d9d72267727bd9a"
          ],
          "data": "0x00000000000000000000000000000000000000000000000063e7fc5baa098000",
          "blockHash": "0x6b731efda0f47b553053bd0c252261610689fed9cdf7d4c67e8039c112cf6d14",
          "blockNumber": "0x97bb0f",
          "blockTimestamp": "0x69538110",
          "transactionHash": "0x91617dce075618cabe3c56b12937e315b9e0f154108d64d583ddd0762debf6f9",
          "transactionIndex": "0x39",
          "logIndex": "0x74",
          "removed": false
        },
        {
          "address": "0xac965de56a92faf07a34436350d0b6d64366cdc1",
          "topics": [
            "0x91db5d4a67c499bdf5cae8da755af68efc6296507ccebecf1f1aeb70b799d7fb",
            "0x0000000000000000000000000f05831e0544c390c547109f5d9d72267727bd9a"
          ],
          "data": "0x00000000000000000000000000000000000000000000000063e7fc5baa098000",
          "blockHash": "0x6b731efda0f47b553053bd0c252261610689fed9cdf7d4c67e8039c112cf6d14",
          "blockNumber": "0x97bb0f",
          "blockTimestamp": "0x69538110",
          "transactionHash": "0x91617dce075618cabe3c56b12937e315b9e0f154108d64d583ddd0762debf6f9",
          "transactionIndex": "0x39",
          "logIndex": "0x75",
          "removed": false
        }
      ],
      "logsBloom": "0x00000000000000000000000000000000000000000000000000000000000000000000000000000002000000000800000000000000000000000000002000000000000400000000000000000008000000000000000000000000000000000040000000000000000000200000000000000000000000000000000000000110000000000000000000000000000000000000000000000000000000000000000000000000000000000000020000000000000000000000000000000000004000000000000000001002000000000000000000000008000000400000020000000000000000000000000000000000000000000000000001000000000000040000000000000000",
      "type": "0x2",
      "transactionHash": "0x91617dce075618cabe3c56b12937e315b9e0f154108d64d583ddd0762debf6f9",
      "transactionIndex": "0x39",
      "blockHash": "0x6b731efda0f47b553053bd0c252261610689fed9cdf7d4c67e8039c112cf6d14",
      "blockNumber": "0x97bb0f",
      "gasUsed": "0xa614",
      "effectiveGasPrice": "0x110ee5",
      "from": "0x0f05831e0544c390c547109f5d9d72267727bd9a",
      "to": "0xac965de56a92faf07a34436350d0b6d64366cdc1",
      "contractAddress": null
    }
  ],
  "libraries": [],
  "pending": [],
  "returns": {},
  "timestamp": 1767080210469,
  "chain": 11155111,
  "commit": "3df127b"
}